{
  "contractName": "tokenD",
  "abi": [
    {
      "inputs": [],
      "stateMutability": "nonpayable",
      "type": "constructor"
    },
    {
      "inputs": [
        {
          "internalType": "string",
          "name": "orgname",
          "type": "string"
        },
        {
          "internalType": "address",
          "name": "org",
          "type": "address"
        }
      ],
      "name": "setOrg",
      "outputs": [],
      "stateMutability": "nonpayable",
      "type": "function"
    },
    {
      "inputs": [],
      "name": "returnOrgs",
      "outputs": [
        {
          "internalType": "string",
          "name": "",
          "type": "string"
        }
      ],
      "stateMutability": "view",
      "type": "function",
      "constant": true
    },
    {
      "inputs": [
        {
          "internalType": "string",
          "name": "orgn",
          "type": "string"
        }
      ],
      "name": "transferDon",
      "outputs": [],
      "stateMutability": "payable",
      "type": "function",
      "payable": true
    }
  ],
  "bytecode": "0x608060405234801561001057600080fd5b5033600360006101000a81548173ffffffffffffffffffffffffffffffffffffffff021916908373ffffffffffffffffffffffffffffffffffffffff160217905550610a48806100616000396000f3fe6080604052600436106100345760003560e01c8063098186e414610039578063b5fd8f1a14610055578063bb10c78d1461007e575b600080fd5b610053600480360381019061004e919061048c565b6100a9565b005b34801561006157600080fd5b5061007c600480360381019061007791906104d5565b610136565b005b34801561008a57600080fd5b506100936102a7565b6040516100a091906106bd565b60405180910390f35b600080826040516100ba9190610660565b908152602001604051809103902060009054906101000a900473ffffffffffffffffffffffffffffffffffffffff1690508073ffffffffffffffffffffffffffffffffffffffff166108fc349081150290604051600060405180830381858888f19350505050158015610131573d6000803e3d6000fd5b505050565b600360009054906101000a900473ffffffffffffffffffffffffffffffffffffffff1673ffffffffffffffffffffffffffffffffffffffff163373ffffffffffffffffffffffffffffffffffffffff16146101c6576040517f08c379a00000000000000000000000000000000000000000000000000000000081526004016101bd906106df565b60405180910390fd5b806000836040516101d79190610660565b908152602001604051809103902060006101000a81548173ffffffffffffffffffffffffffffffffffffffff021916908373ffffffffffffffffffffffffffffffffffffffff16021790555060028290806001815401808255809150506001900390600052602060002001600090919091909150908051906020019061025e929190610364565b5060018060008373ffffffffffffffffffffffffffffffffffffffff1673ffffffffffffffffffffffffffffffffffffffff168152602001908152602001600020819055505050565b60606000806040518060200160405280600081525090506000604051806020016040528060008152509050600092505b60028054905083101561035b57600283815481106102f8576102f7610926565b5b9060005260206000200160405160200161031291906106a6565b60405160208183030381529060405291508082604051602001610336929190610677565b60405160208183030381529060405290506001836103549190610791565b92506102d7565b80935050505090565b82805461037090610865565b90600052602060002090601f01602090048101928261039257600085556103d9565b82601f106103ab57805160ff19168380011785556103d9565b828001600101855582156103d9579182015b828111156103d85782518255916020019190600101906103bd565b5b5090506103e691906103ea565b5090565b5b808211156104035760008160009055506001016103eb565b5090565b600061041a61041584610724565b6106ff565b90508281526020810184848401111561043657610435610989565b5b610441848285610823565b509392505050565b600081359050610458816109fb565b92915050565b600082601f83011261047357610472610984565b5b8135610483848260208601610407565b91505092915050565b6000602082840312156104a2576104a1610993565b5b600082013567ffffffffffffffff8111156104c0576104bf61098e565b5b6104cc8482850161045e565b91505092915050565b600080604083850312156104ec576104eb610993565b5b600083013567ffffffffffffffff81111561050a5761050961098e565b5b6105168582860161045e565b925050602061052785828601610449565b9150509250929050565b600061053c8261076a565b6105468185610775565b9350610556818560208601610832565b61055f81610998565b840191505092915050565b60006105758261076a565b61057f8185610786565b935061058f818560208601610832565b80840191505092915050565b600081546105a881610865565b6105b28186610786565b945060018216600081146105cd57600181146105de57610611565b60ff19831686528186019350610611565b6105e785610755565b60005b83811015610609578154818901526001820191506020810190506105ea565b838801955050505b50505092915050565b6000610627601383610775565b9150610632826109a9565b602082019050919050565b600061064a600183610786565b9150610655826109d2565b600182019050919050565b600061066c828461056a565b915081905092915050565b6000610683828561056a565b915061068e8261063d565b915061069a828461056a565b91508190509392505050565b60006106b2828461059b565b915081905092915050565b600060208201905081810360008301526106d78184610531565b905092915050565b600060208201905081810360008301526106f88161061a565b9050919050565b600061070961071a565b90506107158282610897565b919050565b6000604051905090565b600067ffffffffffffffff82111561073f5761073e610955565b5b61074882610998565b9050602081019050919050565b60008190508160005260206000209050919050565b600081519050919050565b600082825260208201905092915050565b600081905092915050565b600061079c82610819565b91506107a783610819565b9250827fffffffffffffffffffffffffffffffffffffffffffffffffffffffffffffffff038211156107dc576107db6108c8565b5b828201905092915050565b60006107f2826107f9565b9050919050565b600073ffffffffffffffffffffffffffffffffffffffff82169050919050565b6000819050919050565b82818337600083830152505050565b60005b83811015610850578082015181840152602081019050610835565b8381111561085f576000848401525b50505050565b6000600282049050600182168061087d57607f821691505b60208210811415610891576108906108f7565b5b50919050565b6108a082610998565b810181811067ffffffffffffffff821117156108bf576108be610955565b5b80604052505050565b7f4e487b7100000000000000000000000000000000000000000000000000000000600052601160045260246000fd5b7f4e487b7100000000000000000000000000000000000000000000000000000000600052602260045260246000fd5b7f4e487b7100000000000000000000000000000000000000000000000000000000600052603260045260246000fd5b7f4e487b7100000000000000000000000000000000000000000000000000000000600052604160045260246000fd5b600080fd5b600080fd5b600080fd5b600080fd5b6000601f19601f8301169050919050565b7f6f6e6c79206f776e65722066756e6374696f6e00000000000000000000000000600082015250565b7f2000000000000000000000000000000000000000000000000000000000000000600082015250565b610a04816107e7565b8114610a0f57600080fd5b5056fea2646970667358221220bca87f3ed2becfd2d5596fbf8111412e680cfd6e03a85879b0d2ae6afb9f276664736f6c63430008070033",
  "immutableReferences": {},
  "source": "// SPDX-License-Identifier: GPL-3.0\npragma solidity >=0.6.0 <0.9.0;\n\ncontract tokenD{\n    \n    mapping(string => address) adrmap;\n    mapping(address => uint256) validorg;\n    string[] orgsval;\n    address owner;\n    \n    \n    constructor() {\n        owner=msg.sender;\n        \n    }\n    \n    function setOrg(string memory orgname,address org) public{\n        \n        require(msg.sender==owner,\"only owner function\");\n        adrmap[orgname]=org;\n        orgsval.push(orgname);\n        validorg[org]=1;\n        \n    }\n    \n    function returnOrgs() view public returns(string memory){\n        \n       uint256 i=0;\n        string memory obj = \"\";\n        string memory response = \"\";\n        for (i = 0; i < orgsval.length; i += 1) {  // iterating through the data of held by imageHash[] and link[] for each token between both the bounds\n                obj = string(abi.encodePacked(orgsval[i]));  // formation of JSON object\n                response = string(abi.encodePacked(response,\" \",obj));\n      } \n      return(response);\n        \n        \n    }\n    \n    function transferDon(string memory orgn) payable public{\n        address payable tra =  payable(adrmap[orgn]);\n        \n        tra.transfer(msg.value);\n        \n    }\n    \n}",
  "sourcePath": "F:\\Projects\\Stiften_donation_app\\contracts\\tokenD.sol",
  "compiler": {
    "name": "solc",
    "version": "0.8.7+commit.e28d00a7.Emscripten.clang"
  },
  "schemaVersion": "3.4.3",
  "updatedAt": "2021-09-05T21:07:01.935Z",
  "networkType": "ethereum",
  "devdoc": {
    "kind": "dev",
    "methods": {},
    "version": 1
  },
  "userdoc": {
    "kind": "user",
    "methods": {},
    "version": 1
  }
}